:020000040000FA
:100000000C94DB010C9403020C9403020C94030285
:100010000C9403020C9403020C9403020C9403024C
:100020000C9403020C9403020C9403020C9403023C
:100030000C9403020C9403020C9403020C9403022C
:100040000C94A11A0C9403020C94111B0C94EB1A3F
:100050000C9403020C9403020C9403020C9403020C
:100060000C9403020C9403024E414E494E495459DC
:10007000494E46CDCCCC3D0AD7233C17B7D1387773
:10008000CC2B329595E6241FB14F0A000020410089
:1000900000C84200401C4620BCBE4CCA1B0E5AAED3
:1000A000C59D7400407A10F35A00A0724E180900E2
:1000B00010A5D4E80000E87648170000E40B5402CD
:1000C0000000CA9A3B000000E1F505000080969808
:1000D00000000040420F000000A086010000001058
:1000E0002700000000E8030000000064000000009A
:1000F000000A00000000000100000000002C76D87B
:1001000088DC674F0823DFC1DFAE59E1B1B796E560
:10011000E3E453C63AE651997696E8E6C28426EBC4
:10012000898C9B62ED407C6FFCEFBC9C9F40F2BAD7
:10013000A56FA5F490055A2AF75C936B6CF9676D6F
:10014000C11BFCE0E40D47FEF520E6B500D0ED90C4
:100150002E0300943577050080841E080000204E91
:100160000A000000C80C333333330F986E1283112A
:1001700041EF8D2114893BE65516CFFEE6DB18D101
:10018000844B381BF77C1D901DA4BBE424203284D3
:10019000725E228100C9F124ECA1E53D2763646908
:1001A0006E6F70737578585B0044656661756C742A
:1001B0002073656E6420696E74657276616C2028A8
:1001C0006D73293A20003A005365727665723A20C1
:1001D000004C6F63616C2049503A20004448435002
:1001E000206661696C65642E2053746174696320B4
:1001F00066616C6C6261636B2064697361626C65DB
:10020000642E005374617274696E6720457468656A
:10021000726E65742E2E2E00526571756573742092
:1002200066696E697368656400526571756573749B
:100230002066696E6973686564004854545020658F
:1002400072726F723A2000526573706F6E73652020
:100250004353563A00496E76616C696420485454A1
:100260005020726573706F6E7365005265717565AD
:1002700073742073656E7400436F6E74656E742DB5
:100280004C656E6774683A2000436F6E74656E74D7
:100290002D547970653A20746578742F706C61699B
:1002A0006E004163636570743A20746578742F70D2
:1002B0006C61696E00582D536D617274486F6D6585
:1002C0002D466F726D61743A2063737600436F6ED2
:1002D0006E656374696F6E3A20636C6F7365004876
:1002E0006F73743A200020485454502F312E31003F
:1002F000504F53542000436F6E6E656374696F6E88
:10030000206661696C65640052657175657374205F
:100310004353563A005061796C6F6164206275698D
:100320006C64206661696C6564005573696E672052
:100330006C6173742076616C696420444854313177
:100340002076616C756573004448543131207265C4
:100350006164206661696C6564000000000024002F
:1003600027002A0000000000250028002B000000C4
:100370000008000201000003040700000000000064
:1003800000000000000023002600290004040404EB
:10039000040404040202020202020303030303032F
:1003A000010204081020408001020408102001020C
:1003B00004081020431B11241FBECFEFD8E0DEBF7E
:1003C000CDBF13E0A0E0B1E0E2ECFAE602C0059098
:1003D0000D92A632B107D9F726E0A6E2B3E001C03C
:1003E0001D92A13EB207E1F711E0CBEDD1E004C0D0
:1003F0002197FE010E94282ECA3DD107C9F70E940D
:100400001C1C0C945F350C9400008091C0069091E8
:10041000C1068230910538F0880F991F880F991F07
:1004200005970197F1F70895CF92DF92EF92FF922F
:10043000CF93DF93B091C906A0E08111AB2F8091DB
:10044000CA0690E0880F991FAC014E575C4FC090D0
:10045000CF06D090D006E090D106F090D20630E0E2
:1004600020E0FA01C591D491E881B90190E080E0E3
:10047000EB23EA130AC02F5F3F4F6C157D058E05F5
:100480009F0578F36FEF7FEFCB01DF91CF91FF9066
:10049000EF90DF90CF9008958CBD9DBD0895FC0135
:1004A000818D928D0895089520E3FC01208332967A
:1004B000862F82958F706F706A3030F4605D629322
:1004C000682F8111F5CF0895695CF9CF833081F0F1
:1004D00028F4813099F08230A9F008958730A9F08E
:1004E0008830C9F08430B1F4809180008F7D03C0E2
:1004F000809180008F7780938000089584B58F77F6
:1005000084BD089584B58F7DFBCF8091B0008F7737
:100510008093B00008958091B0008F7DF9CFCF9384
:10052000DF93282F30E0F901E259FC4F8491F90163
:10053000E056FC4FD491F901E457FC4FC491CC2311
:10054000A1F081110E946602EC2FF0E0EE0FFF1F78
:10055000EE57FC4FA591B491EC91ED2381E090E032
:1005600009F480E0DF91CF91089580E090E0FACF28
:100570001F93CF93DF93282F30E0F901E259FC4F0E
:100580008491F901E056FC4FD491F901E457FC4FF6
:10059000C491CC23A9F0162F81110E946602EC2F82
:1005A000F0E0EE0FFF1FEC59FC4FA591B4918FB70F
:1005B000F894EC91111108C0D095DE23DC938FBF25
:1005C000DF91CF911F910895DE2BF8CFCF93DF936A
:1005D00090E0FC01E056FC4F249184579C4FFC01B5
:1005E00084918823C9F090E0880F991FFC01E65A96
:1005F000FC4FA591B491FC01EC59FC4FC591D491ED
:1006000061110DC09FB7F8948C91209582238C9333
:100610008881282328839FBFDF91CF91089562307E
:1006200051F49FB7F8943C91822F809583238C934B
:10063000E8812E2BEFCF8FB7F894EC912E2B2C93D3
:100640008FBFEACFCF93DF93CDEBD6E061E0898116
:100650000E94E6020E94050260E088810E94E60294
:100660000E94050260E089810E94E602DF91CF913D
:100670000C9405020F931F93CF93DF93D82FC8E0FC
:1006800061E08091BD060E94E6020E9405020D2FE6
:1006900010E060E0D0FF61E08091BE060E94E602BB
:1006A0000E94050260E08091BD060E94E6020E9461
:1006B000050215950795D02FC15011F761E0809183
:1006C000BD060E94E60260E08091BE060E94E6023E
:1006D0000E94050260E08091BD060E94E6020E9431
:1006E00005028091BE060E948F02C82F811105C0AD
:1006F00061E08091BE060E94E6020E94050261E070
:100700008091BD060E94E6020E94050281E0C111AF
:1007100001C080E0DF91CF911F910F91089561E0BA
:100720008091BE060E94E6020C9405020F931F936F
:10073000CF93DF938C010E948F0380E40E943A03E1
:100740000E9422030E948F0380EC0E943A03E8017A
:100750000C5F1F4F89910E943A03C017D107D1F750
:100760000E9422030E948F038091BF068F708058E1
:100770000E943A03DF91CF911F910F910C942203B5
:100780009F92AF92BF92CF92DF92EF92FF920F9320
:100790001F93CF93DF9300D000D0CDB7DEB7FB011E
:1007A00030E087FF02C0819531E03097D9F4211104
:1007B00019C019821A821B828FE38C83CE010196A5
:1007C0000E9496030F900F900F900F90DF91CF91A2
:1007D0001F910F91FF90EF90DF90CF90BF90AF905F
:1007E0009F900895BE016F5F7F4F6B015E0173E0C4
:1007F000A71AB1088601E82E880FFF0880E4982E1A
:10080000CF01B7010E94F92DDC01982F81110DC095
:10081000309759F4211109C0D80113961C92332343
:1008200071F0F801938230E00AC0A454BE4F8C915D
:10083000D80113968C93911102C0EF2B81F3FB0129
:1008400001501109A016B106D9F6442309F4B6CF18
:1008500021E030E02C0F3D1F2C5F3F4FD6019D91D2
:100860006D01FD013197842F8078892B8083440F9F
:10087000A217B30799F7A2CF3FB7F89480919E03D0
:1008800090919F03A091A003B091A10326B5A89BCE
:1008900005C02F3F19F00196A11DB11D3FBFBA2F12
:1008A000A92F982F8827BC01CD01620F711D811DD2
:1008B000911D42E0660F771F881F991F4A95D1F757
:1008C00008958F929F92AF92BF92CF92DF92EF9254
:1008D000FF924B015C010E943C046B017C010E9471
:1008E0003C046C197D098E099F09683E734081059F
:1008F0009105A8F321E0821A9108A108B10888EEB9
:10090000C80E83E0D81EE11CF11C81149104A104DF
:10091000B10429F7FF90EF90DF90CF90BF90AF9098
:100920009F908F9008952FB7F89460919A037091DB
:100930009B0380919C0390919D032FBF0895CF92BC
:10094000DF92EF92FF920F931F93CF93DF93CDB778
:10095000DEB7C054D1400FB6F894DEBF0FBECDBF96
:10096000182F0E949304111127C00091CB061091FB
:10097000CC062091CD063091CE066B017C01C01AC9
:10098000D10AE20AF30A97018601003D17402105CA
:10099000310590F48091D306C05CDE4F0FB6F89419
:1009A000DEBF0FBECDBFDF91CF911F910F91FF90A2
:1009B000EF90DF90CF9008956093CB067093CC06B4
:1009C0008093CD069093CE061092C6061092C5066F
:1009D0001092C4061092C3061092C20662E0809183
:1009E000C7060E94E60261E070E080E090E00E94AD
:1009F000610461E08091C7060E94E60260E0809198
:100A0000C7060E94B8028091C8068551823020F541
:100A10008BE291E10197F1F762E08091C7060E94B5
:100A2000E6028091D40690E08230910538F0880F7C
:100A3000991F880F991F05970197F1F7F89480E0A7
:100A40000E9414026F3F7F4F8F4F9F4F61F41092AF
:100A5000D306789480E0A0CF64E170E080E090E07D
:100A60000E946104D9CF81E00E9414026F3F7F4F42
:100A70008F4F9F4F61F38E010F5F1F4F6E012FEB62
:100A8000C21A2EEFD20A780180E00E941402F70108
:100A9000608371838283938381E00E941402F70153
:100AA0006483758386839783F8E0EF0EF11CEC1462
:100AB000FD0451F7789430E020E0F801C080D18047
:100AC000E280F3804481558166817781FFEFCF1604
:100AD000DF06EF06FF0631F04F3F8FEF580768073C
:100AE000780719F41092D306B5CFF90183E0F59594
:100AF000E7958A95E1F7EE53F94F8081880FC41688
:100B0000D506E606F70610F180832F5F3F4F085F9A
:100B10001F4F2832310589F64091C6062091C20642
:100B20008091C306280F3327331F8091C406280FF6
:100B3000311D8091C506820F932F911D992748176B
:100B4000190681F681E08093D30626CF8160DCCF41
:100B5000EF92FF920F931F93CF93DF938C017B0152
:100B6000D0E0C0E0F701EC0FFD1F6491662361F057
:100B7000D801ED91FC910190F081E02DC80109951B
:100B8000892B11F02196EECFCE01DF91CF911F91ED
:100B90000F91FF90EF900895AF92BF92CF92DF92A6
:100BA000EF92FF920F931F93CF93DF936C017B0122
:100BB0008B01040F151FEB015E01AE18BF08C017B3
:100BC000D10759F06991D601ED91FC910190F08126
:100BD000E02DC6010995892B79F7C501DF91CF91E9
:100BE0001F910F91FF90EF90DF90CF90BF90AF904B
:100BF0000895FC01538D448D252F30E0842F90E023
:100C0000821B930B541710F0CF9608950197089507
:100C1000FC01918D828D981761F0A28DAE0FBF2FD0
:100C2000B11D5D968C91928D9F5F9F73928F90E026
:100C300008958FEF9FEF0895FC01918D828D981795
:100C400031F0828DE80FF11D858D90E008958FEFD2
:100C50009FEF0895FC01918D228D892F90E0805C9B
:100C60009F4F821B91098F73992708958BED95E013
:100C70000E942A0621E0892B09F420E0822F0895A2
:100C800080E090E0892B29F00E94360681110C94B7
:100C900000000895FC01A48DA80FB92FB11DA35A1F
:100CA000BF4F2C91848D90E001968F739927848F8C
:100CB000A689B7892C93A089B1898C9183708064AF
:100CC0008C93938D848D981306C00288F389E02D50
:100CD00080818F7D80830895EF92FF920F931F9301
:100CE000CF93DF93EC0181E0888F9B8D8C8D9813DF
:100CF0001AC0E889F989808185FF15C09FB7F894EB
:100D0000EE89FF896083E889F98980818370806436
:100D100080839FBF81E090E0DF91CF911F910F9181
:100D2000FF90EF900895F62E0B8D10E00F5F1F4F90
:100D30000F731127E02E8C8D8E110CC00FB607FC9F
:100D4000FACFE889F989808185FFF5CFCE010E942D
:100D50004A06F1CFEB8DEC0FFD2FF11DE35AFF4F4B
:100D6000F0829FB7F8940B8FEA89FB8980818062BB
:100D7000CFCFCF93DF93EC01888D8823B9F0AA8978
:100D8000BB89E889F9898C9185FD03C0808186FD46
:100D90000DC00FB607FCF7CF8C9185FFF2CF808195
:100DA00085FFEDCFCE010E944A06E9CFDF91CF91BA
:100DB0000895FC0120812EBD9B012150310941F095
:100DC00051810DB407FEFDCF4EB55EBD4193F5CF09
:100DD00061507109860F971F0DB407FEFDCF2EB528
:100DE000FC0120830895E0912703F091280380817E
:100DF00090912603892B80830895E0912703F09139
:100E0000280390818091260380958923808308950B
:100E10008EBD00000DB407FEFDCF8EB50895AF92D4
:100E2000BF92CF92DF92EF92FF920F931F93CF93D7
:100E3000DF93CDB7DEB728970FB6F894DEBF0FBEAD
:100E4000CDBF8C017B016A018091BE038333E1F445
:100E50005801A40EB51EA016B10609F46FC00E9479
:100E6000FD0680EF0E940807812F0E940807802F4F
:100E70000E9408070F5F1F4FF70181917F010E94B9
:100E800008070E94F306E7CF5B01A40EB51E84336A
:100E9000C1F40E94FD0619830A838D2D80688B831F
:100EA000CC8264E070E0CE0101960E94D906AE14B7
:100EB000BF0409F441C0F70181917F010E94080736
:100EC000F6CF0E94FD060F3F110509F028F41982A4
:100ED0000A8384E08B830CC017FD17C019820A8334
:100EE00033E0169507953A95E1F7007E0C600B8389
:100EF00086E0C816D104A0F5F701DE011496EA15C4
:100F0000FB0599F081918D93FACFC80126E0969563
:100F100087952A95E1F7807E19830A830115104C85
:100F200010F48461D7CF8C61D5CFB6016D5F7F4F50
:100F3000CE0101960E94D9060E94F306C6012896AA
:100F40000FB6F894DEBF0FBECDBFDF91CF911F91DA
:100F50000F91FF90EF90DF90CF90BF90AF900895EA
:100F600063E070E0CE0101960E94D906F7018191FD
:100F70007F010E940807AE14BF04C1F7DDCFCF93F5
:100F8000DF931F92CDB7DEB7898341E050E0BE0109
:100F90006F5F7F4F90E080E00E940F070F90DF911E
:100FA000CF91089590E02091BE03233339F40C963D
:100FB000982F990F990F990F80E008954896F8CFD0
:100FC000DA01E0912A03F0E0FE2FEE27E60FF71F8B
:100FD00090E0982F8827A901BD018E0F9F1F0C94C8
:100FE0000F07CF93DF9300D0CDB7DEB779836A8345
:100FF00022E030E0AE014F5F5F4F60E170E00E94A1
:10100000E0070F900F90DF91CF910895CF93DF937A
:1010100000D0CDB7DEB779836A8322E030E0AE013D
:101020004F5F5F4F64E070E00E94E0070F900F9009
:10103000DF91CF910895CF93DF931F92CDB7DEB7A5
:1010400020912A0330E0322F2227260F371F90E00D
:10105000982F8827498341E050E0BE016F5F7F4FA2
:10106000820F931F0E940F070F90DF91CF91089579
:10107000CF93DF931F92CDB7DEB76983DC01ED918B
:10108000FC910280F381E02D41E050E0BE016F5FF2
:101090007F4F09950F90DF91CF910895FC019485C2
:1010A000FB018485981303C081E0943008F080E050
:1010B0000895CF93DF931F92CDB7DEB76983DC012C
:1010C000ED91FC910280F381E02D41E050E0BE0102
:1010D0006F5F7F4F09950F90DF91CF91089544E0A6
:1010E00050E0BC018FE090E00C940F070895FF9250
:1010F0000F931F93CF93DF93EB01FC01178A168A9E
:101100002A81211109C02B81211106C02C812111B6
:1011100003C02D81222301F141155105E9F08A0117
:10112000FC01F08C80E591E00E944C02AE014E5F24
:101130005F4F24E030E06CE070E08F2D0E94E0070C
:10114000B8018F2D0E94F10781E090E0DF91CF91EF
:101150001F910F91FF90089580E0F7CFFC018485E7
:1011600095850895FC0184899589089524E132E0EC
:10117000FC0131832083FB01408951896289738995
:10118000FC0142835383648375830895DC01ED91F0
:10119000FC91048CF58DE02D099490E080E0089599
:1011A000CF93DF9300D000D0CDB7DEB780912A0176
:1011B00090912B01A0912C01B0912D0189839A83EC
:1011C000AB83BC83CE0101960E9496030F900F90D3
:1011D0000F900F90DF91CF91089561E083E00E941E
:1011E000B80261E089E00E94B80261E085E00E94F7
:1011F000B80261E086E00C94B802FC01768765874E
:101200000895DC01ED91FC9102A0F3A1E02D099578
:1012100091E089270895862F089581E08627089513
:1012200021E0FC018485843008F020E0822F0895BD
:101230000895EF92FF920F931F93CF93DF93CDB753
:10124000DEB70D851E85F801808191818034F1E043
:101250009F0740F080E0DF91CF911F910F91FF90A9
:10126000EF90089520E4E22EFF24F394B701681B69
:10127000790B9E012F5E3F4F4F85588985569B4FB6
:101280000E94C62F97FDE6CFF80120813181E21A36
:10129000F30A8E159F05F0F6280F391F318320833E
:1012A00081E0D9CFFB0101900020E9F73197AF0130
:1012B000461B570BDC01ED91FC910280F381E02D80
:1012C00009948F929F92AF92BF92EF92FF920F93E9
:1012D0001F93CF93DF93CDB7DEB7A1970FB6F894E6
:1012E000DEBF0FBECDBF7C01FA01CB0119A22230B7
:1012F00008F42AE08E010F5D1F4F822E912CB12C35
:10130000A12CBF01A50194010E94B22CF901CA01D0
:101310006A300CF5605DD8016E938D01232B242B70
:10132000252B79F790E080E0109721F0BD01C701EF
:101330000E945209A1960FB6F894DEBF0FBECDBF32
:10134000DF91CF911F910F91FF90EF90BF90AF90E1
:101350009F908F900895695CDECF66E172E00C94F7
:1013600052090F931F93CF93DF93EC010E94520910
:101370008C01CE010E94AD09800F911FDF91CF91AA
:101380001F910F9108950F931F93CF93DF93EC015B
:101390000E94A8058C01CE010E94AD09800F911F0B
:1013A000DF91CF911F910F910895AF92BF92CF928D
:1013B000DF92EF92FF920F931F93CF93DF9300D0B2
:1013C000CDB7DEB76C01FC0101900020E9F7319741
:1013D0007F01E81AF90A0FEB13E0F80180818823F6
:1013E000A1F1F80181918B3309F43FC08032E9F11A
:1013F0008D30D9F197EF980F9230B8F1882329F109
:101400006DE370E0C8010E94832F0097F1F09C010A
:10141000201B310BAC014F5F5F4F5A01E216F30600
:1014200031F5A701B601C8010E94952F892BF9F467
:101430004AE050E0BE016F5F7F4FC5010E949226D7
:1014400029813A81A216B30619F46FEF7FEFCB0121
:101450000F900F90DF91CF911F910F91FF90EF9020
:10146000DF90CF90BF90AF9008958F01BACF6BE31C
:1014700070E0C5010E94832F009739F38C010F5F44
:101480001F4FABCFDC0184E192E08D939D9384E00C
:10149000FB0101900D928A95E1F708958F929F923A
:1014A000AF92BF92CF92DF92EF92FF920F931F9372
:1014B000CF93DF937C01EB016C0182E0C80ED11C5D
:1014C0004701E5E08E0E911C10E000E0F60141912D
:1014D0006F0150E070E060E02AE0CE010E946109F7
:1014E0005C01E881F9810190F081E02D6EE2CE018E
:1014F00009958A0D9B1D080F191FC814D90431F7CF
:10150000F701458150E070E060E02AE0CE010E94E2
:101510006109800F911FDF91CF911F910F91FF9073
:10152000EF90DF90CF90BF90AF909F908F900895F5
:10153000AF92BF92CF92DF92EF92FF920F931F93E1
:10154000CF93DF9300D000D0CDB7DEB78C016B0115
:101550007A018091BE038333E9F45B016801C40E14
:10156000D51EC016D106A9F10E94FD068FE00E948B
:101570000807812F0E940807802F0E9408070F5F2D
:101580001F4F80E00E940807F50181935F010E94D0
:10159000F306E7CF843369F50E94FD0619830A83B9
:1015A0008F2D8F778B83EC8264E070E0CE01019603
:1015B0000E94D906A70170E060E0C6010E94692F71
:1015C000E114F10421F0B701C6010E94D9060E947E
:1015D000F306C7010F900F900F900F90DF91CF91FE
:1015E0001F910F91FF90EF90DF90CF90BF90AF9041
:1015F00008950E94FD060F3F110509F030F419828D
:101600000A831B8263E070E0D1CF17FD0BC0198203
:101610000A8333E0169507953A95E1F7007E086056
:101620000B83F0CFC80126E0969587952A95E1F7C0
:10163000807E19830A830115104C18F480618B8316
:10164000E1CF8861FCCFCF93DF931F92CDB7DEB798
:1016500020912A0330E0322F2227260F371F90E0F7
:10166000982F882741E050E0BE016F5F7F4F820FC7
:10167000931F0E94980A89810F90DF91CF9108955E
:10168000CF93C82F462F61E070E00E941B0861E0F5
:1016900070E08C2F0E94230B8111F9CFCF91089518
:1016A000CF93C82F80E591E00E944C0268E070E083
:1016B0008C2FCF910C94400BCF93C82F80E591E0F5
:1016C0000E944C0260E170E08C2FCF910C94400B93
:1016D000CF93DF93EC01888D843020F40E945C0B63
:1016E00084E0888FDF91CF910895CF93C82F80E554
:1016F00091E00E944C0263E070E08C2FCF910C943B
:10170000230BCF93DF93EC018C858430D0F40E94BF
:10171000750B843189F0882379F0883169F021E0F4
:101720008C3159F4E881F9810084F185E02DCE01F6
:10173000099521E0892B09F420E0822FDF91CF91D8
:10174000089580E0FBCFCF92DF92EF92FF92CF938C
:10175000DF93EC018C85843068F40E94500B0E946A
:1017600093046B017C018C850E94750B811109C06B
:1017700084E08C87DF91CF91FF90EF90DF90CF9046
:10178000089561E070E080E090E00E9461040E94B2
:101790009304AB01BC014C195D096E097F098D856D
:1017A0009E85B0E0A0E0481759076A077B07D8F28A
:1017B0008C850E945C0BDCCFCF93FC01C08D80E553
:1017C00091E00E944C0260E270E08C2F0E94400B7E
:1017D00062E070E08C2F0E94230B84FD16C062E053
:1017E00070E08C2F0E94230B83FF0AC048E162E067
:1017F00070E08C2F0E941B0880E090E0CF9108954C
:1018000080E591E00E944C02E3CF40E162E070E0AD
:101810008C2F0E941B0881E0F0CFCF93DF931F92A3
:10182000CDB7DEB741E050E0BE016F5F7F4F90E083
:1018300080E00E94980A89810F90DF91CF910895EE
:10184000CF93DF93C4E1D0E00E940D0C882361F0B8
:1018500061E070E080E090E00E9461042197A1F7D0
:1018600080E0DF91CF91089581E0FBCF1F93CF936C
:10187000DF931F92CDB7DEB7182F80E591E00E946D
:101880004C02812F0E94D20727E0129FF001112401
:10189000EE55FC4F22813381377041E050E0BE01AC
:1018A0006F5F7F4F820F931F0E94980A89810F906C
:1018B000DF91CF911F910895FC01808D843040F419
:1018C000218D328D232B21F00E94360C90E008955B
:1018D0008FEF9FEF0895CF93DF93FC012485243091
:1018E00028F08FEF9FEFDF91CF910895EC010190E9
:1018F000F081E02D0084F185E02D0995892B89F395
:101900008C850E94360C90E0EECFDA01E0912A033C
:10191000F0E0FE2FEE27E60FF71F90E0982F8827C4
:10192000A901BD018E0F9F1F0C94980A8F929F9260
:10193000AF92BF92CF92DF92EF92FF921F93CF931D
:10194000DF93CDB7DEB72C970FB6F894DEBF0FBE8E
:10195000CDBF2091BE0314E0222339F16B017C013D
:1019600080E591E00E944C025E0127E0A20EB11CCE
:10197000450110E063E070E0812F0E94230BF40129
:1019800081934F01882349F11F5F143099F710E0CC
:10199000F50181915F018D31D9F08831C9F08A510B
:1019A0008230B0F01F5F143099F7812F2C960FB65C
:1019B000F894DEBF0FBECDBFDF91CF911F91FF9096
:1019C000EF90DF90CF90BF90AF909F908F90089551
:1019D00060E170E0812F0E94400BA12EB12C83EEBC
:1019E00093E00197F1F742E870E060E0812F0E94F8
:1019F0001B084FEF62E070E0812F0E941B08B601C8
:101A0000C114D10491F480911E0190911F0101969F
:101A10008115F0EC9F0708F45CC090931F01809340
:101A20001E0160911E0170911F01812F0E94060806
:101A300086E0EEE2F1E0DE01119601900D928A95CA
:101A4000E1F7F70183818F778C8384818D83858192
:101A50008E83A7014E5F5F4F24E030E06CE070E0C2
:101A6000812F0E94E007B601812F0E94F10726E036
:101A700030E0AE014F5F5F4F66E070E0812F0E9463
:101A8000E00761E070E0812F0E94400B27E02A9D73
:101A9000C0012B9D900D11249C012E553C4F7901C6
:101AA000F9011182108222E030E0AE01455F5F4F04
:101AB00068E270E0812F0E94850C8B859C859827B9
:101AC00089279827F70193838283168215821482CF
:101AD0006CCF80E090ECA1CFCF92DF92EF92FF929B
:101AE0000F931F93CF93DF9300D000D000D0CDB7DA
:101AF000DEB78C016B017A01FC01808D843010F41B
:101B00000E945C0B84E192E09A838983F6018281D2
:101B10009381A481B5818B839C83AD83BE83B70100
:101B2000CE0101960E94960CF801808F8430A0F4BB
:101B3000F586E486128E118E81E026960FB6F89413
:101B4000DEBF0FBECDBFDF91CF911F910F91FF90F0
:101B5000EF90DF90CF90089580E0EFCFAF92BF92EB
:101B6000CF92DF92EF92FF920F931F93CF93DF9369
:101B700000D000D000D0CDB7DEB7082F6B0180E5D4
:101B800091E00E944C029E012F5F3F4F7901590165
:101B900010E063E070E0812F0E94230BF501819338
:101BA0005F01882341F11F5F143099F710E0F701BE
:101BB00081917F018D31D1F08831C1F08A5182301D
:101BC000A8F01F5F143099F7812F26960FB6F8946E
:101BD000DEBF0FBECDBFDF91CF911F910F91FF9060
:101BE000EF90DF90CF90BF90AF90089560E170E0EC
:101BF000812F0E94400BE12EF12C83EE93E00197A0
:101C0000F1F7402F70E060E0812F0E941B084FEF3A
:101C100062E070E0812F0E941B08B601CD2889F494
:101C200080911E0190911F0101968115F0EC9F0794
:101C300098F190931F0180931E0160911E01709195
:101C40001F01812F0E94060861E070E0812F0E9431
:101C5000400B27E02E9DC0012F9D900D11249C016B
:101C60002E553C4F7901F9011182108222E030E0BB
:101C7000AE014B5F5F4F68E270E0812F0E94850CE0
:101C80008D819E81982789279827F70193838283E6
:101C900016821582148298CF80E090ECCACFCF9242
:101CA000DF92EF92FF921F93CF93DF93EC017B01C2
:101CB0006A018C85843048F40E94750B882319F0E2
:101CC0008C850E94500B84E08C87F7018281938180
:101CD000A481B5810097A105B10551F490E080E0A1
:101CE000DF91CF911F91FF90EF90DF90CF900895FB
:101CF0008F3F9F4FAF4FBF4F89F38091BE0381113C
:101D000003C084E08C87EACF70E060E081E20E944B
:101D1000AE0D182F8C87843008F780E591E00E9483
:101D20004C02A7014E5F5F4F24E030E06CE070E0B2
:101D3000812F0E94E007B601812F0E94F10764E025
:101D400070E0812F0E94400B0E9493046B017C0184
:101D50008C850E94750B873109F18C31F9F088234D
:101D600009F4BCCF0E949304AB01BC014C195D097E
:101D70006E097F098D859E85B0E0A0E084179507E8
:101D8000A607B70738F061E070E080E090E00E94BD
:101D90006104DECF8C850E945C0BB3CF81E090E0C4
:101DA0009FCF0F931F93CF93DF93EC018B01888D0F
:101DB000843010F40E945C0B8091BE03811107C037
:101DC00094E0988FDF91CF911F910F910895B80102
:101DD00082E00E94AE0D888F843030F41D870C871E
:101DE0001A8E198E81E0EECF80E0ECCF7F928F9239
:101DF0009F92AF92BF92CF92DF92EF92FF920F939A
:101E00001F93CF93DF9300D0CDB7DEB7782E8B0131
:101E10004A01590122E030E0AE014F5F5F4F64E2BA
:101E200070E00E94850CE980FA80FE24EF24FE24F5
:101E3000E00EF11E970137704091BE03072D10E0B0
:101E4000433309F042C0085F1F4F102F0027110FC6
:101E5000110F110FC901800F911F4733C9F1A9015B
:101E60004A0D5B1D4130584098F160E078E06B010D
:101E7000C21AD30AA601B4010E940F07A5014C198A
:101E80005D09B4016C0D7D1DC8010E940F07EA0CAD
:101E9000FB1CF982EA8222E030E0AE014F5F5F4F27
:101EA00064E270E0872D0E94E0070F900F90DF91B1
:101EB000CF911F910F91FF90EF90DF90CF90BF9047
:101EC000AF909F908F907F900895005F1F4FBDCF80
:101ED000A501B401DACFEF92FF921F93CF93DF9366
:101EE00000D0CDB7DEB7182F22E030E0AE014F5F53
:101EF0005F4F60E270E00E94850CE980FA80FE246A
:101F0000EF24FE2422E030E0AE014F5F5F4F60E23D
:101F100070E0812F0E94850C89819A8198278927FA
:101F20009827E816F90689F487E0189FF001112434
:101F3000EE55FC4FF582E482C7010F900F90DF91C0
:101F4000CF911F91FF90EF9008957C01DBCF1F93FD
:101F5000CF93DF93182F80E591E00E944C02812FF0
:101F60000E946B0FEC0163E070E0812F0E94230B55
:101F7000873121F08C3111F0D0E0C0E0CE01DF914B
:101F8000CF911F910895CF93DF93EC018C8584301E
:101F900060F40E94750B873111F08C3131F48C851F
:101FA0000E94A70F8115984088F3DF91CF91089583
:101FB000FC018485843010F40C94A70F90E080E03D
:101FC00008959F92AF92BF92CF92DF92EF92FF92CD
:101FD0000F931F93CF93DF938C015B01942EE52E1B
:101FE000FC01C688D788F08C80E591E00E944C0205
:101FF0008F2D0E946B0FC92DDE2D8C179D0708F4C5
:10200000EC019E01A501B6018F2D0E94F60EF8018C
:10201000868997898C0F9D1F978B868BCE01DF91C8
:10202000CF911F910F91FF90EF90DF90CF90BF90D5
:10203000AF909F9008958F929F92AF92BF92CF9250
:10204000DF92EF92FF920F931F93CF936C015B018E
:102050008A01FC01C485C430F0F57A014130584052
:1020600018F0E12C88E0F82E80E591E00E944C0207
:102070008C2F0E946B0F4C0163E070E08C2F0E944C
:10208000230B873111F08C3149F58E149F0460F3D6
:1020900080E591E00E944C029701A50170E060E0AC
:1020A0008C2F0E94F60E60E270E08C2F0E94400B95
:1020B00062E070E08C2F0E94230B84FD17C063E068
:1020C00070E08C2F0E94230B81110BC081E090E007
:1020D000F6019383828310E000E010C0F12CE12C24
:1020E000D7CF80E591E00E944C02E2CF40E162E070
:1020F00070E08C2F0E941B08EF2841F3C801CF919C
:102100001F910F91FF90EF90DF90CF90BF90AF9015
:102110009F908F900895FF920F931F93CF93DF931B
:1021200000D0CDB7DEB7F82E22E030E0AE014F5F31
:102130005F4F66E270E00E94850C09811A811027CA
:102140000127102722E030E0AE014F5F5F4F66E2CB
:1021500070E08F2D0E94850C89819A8198278927AC
:1021600098270817190749F4C8010F900F90DF91BD
:10217000CF911F910F91FF9008958C01E3CF1F9392
:10218000CF93DF93182F87E0189FE0011124CE55DD
:10219000DC4F88819981009761F480E591E00E948D
:1021A0004C02812F0E948B102E81821B91099983F2
:1021B0008883DF91CF911F910895FC01848584303D
:1021C00010F40C94BF1090E080E008954F925F925D
:1021D0007F928F929F92AF92BF92CF92DF92EF92B7
:1021E000FF920F931F93CF93DF9300D0CDB7DEB74D
:1021F000782E6B014A01A82EB12C27E0829FC001E6
:102200001124FC01EE55FC4F7F010081118180E516
:1022100091E00E944C020815190554F4872D0E9484
:102220008B10F70126818C01021B11091183008399
:102230000115110529F563E070E0872D0E94230B3D
:10224000843159F0882349F001E010E08C3111F419
:1022500010E000E0119501951109C8010F900F9051
:10226000DF91CF911F910F91FF90EF90DF90CF9072
:10227000BF90AF909F908F907F905F904F90089508
:10228000801691060CF4840187E08A9DF0018B9DF5
:10229000F00D1124EE55FC4FE280F380C114D104FF
:1022A00051F12701F7E05F22872D0E94D207840DAC
:1022B000951D2091BE03273309F453C09801240DC6
:1022C000351D2130384008F44CC020E038E0490189
:1022D00084189508A401B6010E94980A2601480CAA
:1022E000591C6801C818D908872D0E94D207A60179
:1022F000B2010E94980AE00EF11E87E08A9DF0016B
:102300008B9DF00D1124EE55FC4FF382E28220816B
:102310003181201B310B318320838681800F912FE7
:10232000911D8A3F910510F4232BF1F487E08A9DDB
:10233000F0018B9DF00D1124EE55FC4F1682F982B1
:10234000EA8222E030E0AE014F5F5F4F68E270E06A
:10235000872D0E94E00760E470E0872D0E94400B0B
:102360007CCFA801B601C5CF868377CFCF93DF930B
:10237000FC01218D328D2115310529F48FEF9FEF5E
:10238000DF91CF910895EC01808D4217530708F03B
:10239000A9010E94E6101816190684F7298D3A8DB6
:1023A000281B390B3A8F298FEBCF0F931F93CF93B5
:1023B000DF931F92CDB7DEB7FC01218D328D232B29
:1023C00041F48FEF9FEF0F90DF91CF911F910F910D
:1023D00008958C0141E050E0BE016F5F7F4FFC012A
:1023E000808D0E94E610181619065CF7F801818DA1
:1023F000928D0197928F818F898190E0E4CF0F9326
:102400001F93CF93DF93CDB7DEB728970FB6F8941D
:10241000DEBF0FBECDBF8C01D80159964D915C91A6
:102420005A974115510551F0ED91FC91048CF58DB1
:10243000E02D70E060E0C8010995EECFF801808DD5
:102440000E94BF10892BB1F148E050E0BE016F5FE0
:102450007F4FD80158968C910E94E61018161906E5
:10246000F4F4D801509684E0FE01319601900D926B
:102470008A95E1F78D8190E0982F88272E81820F31
:10248000911DF801958B848B8F81282F30E0322F9E
:1024900022278885820F932F911D928F818F2896F6
:1024A0000FB6F894DEBF0FBECDBFDF91CF911F9165
:1024B0000F91089590E080E0F2CF4F925F926F927B
:1024C0007F928F929F92AF92BF92CF92DF92EF92C4
:1024D000FF920F931F93CF93DF93CDB7DEB7639730
:1024E0000FB6F894DEBF0FBECDBF7C016B013A0181
:1024F000FB0120E090E080E06AE03191332309F4B1
:1025000061C040ED430F4A3008F04DC0689FA00104
:10251000699F500D1124CA01C097830F911D37FD8B
:102520009A958F3F910549F340F3F701428153811A
:10253000648175818091A4069091A506A091A6065C
:10254000B091A706481759076A077B0709F40DC21F
:102550008701085F1F4F0E9493046F7077277C5F8D
:10256000C8010E94D10E813009F004C284E192E0DA
:102570009A838983F70182819381A481B5818B83BA
:102580009C83AD83BE8345E350E0BE016F5F7F4F08
:10259000C8010E947708892BA9F5D12CC12CC8014C
:1025A0000E94680B17C03E3209F0BFCF233009F4F8
:1025B000BCCFD301A20FB11D12968C932F5F90E078
:1025C00080E09BCF233009F0B0CFF3018583CC248A
:1025D000C394D12CC60163960FB6F894DEBF0FBE2C
:1025E000CDBFDF91CF911F910F91FF90EF90DF90C2
:1025F000CF90BF90AF909F908F907F906F905F90A3
:102600004F9008950E949304F7017783668342E018
:1026100050E0B7016A5F7F4FC8010E94E10F81E07F
:1026200090E09A83898342E050E0BE016F5F7F4F64
:10263000C8010E94E10F80E091E09A83898342E023
:1026400050E0BE016F5F7F4FC8010E94E10F1A8208
:10265000198242E050E0BE016F5F7F4FC8010E94C7
:10266000E10F42E050E0BE016F5F7F4FC8010E9462
:10267000E10F42E050E0BE016F5F7F4FC8010E9452
:10268000E10F5601F6018081882301F16501F60111
:1026900081912F01882311F08E32B1F446018A18FE
:1026A0009B081814190474F48D8641E050E0BE01B3
:1026B000635F7F4FC8010E94E10FA401B501C8010B
:1026C0000E94E10F5201DECF6201E1CF1D8641E0A1
:1026D00050E0BE01635F7F4FC8010E94E10FC12C33
:1026E000DD24D394DA82C98242E050E0BE016F5FFC
:1026F0007F4FC8010E94E10FDA82C98242E050E0B8
:10270000BE016F5F7F4FC8010E94E10FC8010E94A8
:10271000DC0B892B09F441CFF3E0AF2EB12C230160
:1027200022E0420E511CD4C0F701428153816481E2
:102730007581808D918DA28DB38D481759076A07D9
:102740007B0709F008C1848D958DC59709F003C1F9
:1027500081A192A15DEFC52EDD24DA940C970CF4D3
:10276000ADC04CE050E0BE016F5F7F4FC8010E94DA
:10277000B6118B819C819827892798279A8B898B02
:10278000F7014681578129813A814217530709F0A1
:10279000E7C097FFE5C08F7092703BEFC32EDD243A
:1027A000DA94892B09F08AC06F80788476246724B4
:1027B00076242AEFC22EDD24DA946114710409F420
:1027C0007DC0D12CC12C8D819E8198278927982787
:1027D000C816D906F8F441E050E0BE01635F7F4FB0
:1027E000C8010E94B6114D85442331F050E070E0DD
:1027F00060E0C8010E94B6118D858111ECCF44E0E4
:1028000050E070E060E0C8010E94B611FFEFCF1AFF
:10281000DF0AD9CF912C812C41E050E0BE016D5EE2
:102820007F4FC8010E94B6114B89842F807C09F02C
:102830006CC0442331F050E070E060E0C8010E94B9
:10284000B6118B898111E8CF42E050E0BE01615F93
:102850007F4FC8010E94B61142E050E0BE01635FA5
:102860007F4FC8010E94B61144E050E070E060E084
:10287000C8010E94B61142E050E0BE016F5E7F4F7A
:10288000C8010E94B6118F85988949895A89811596
:10289000914009F043C0CD84DE84DC24CD24DC24C7
:1028A00081E0C816D104D1F54115544009F04AC061
:1028B00044E050E0B201C8010E94B61121E0A21A22
:1028C000B10809F46CCEFFEFCF16DF0609F067CE32
:1028D0000E9493043B014C01C8010E94FF1118168D
:1028E00019060CF421CF0E94930466197709880910
:1028F0009909693873418105910548F562E370E0F3
:1029000080E090E00E946104E7CF41E050E070E099
:1029100060E0C8010E94B6111B8A93CF5427452757
:10292000542770E060E0C8010E94B611FFEF8F1AD3
:102930009F0A6814790409F06FCF96EFC92EDD2441
:10294000DA94BCCFE7EFCE2EDD24DA94B7CFCC24D7
:10295000CA94DC2CB3CF6EEFC62EDD24DA94AECF52
:102960004CEFC42EDD24DA94A9CF8EEFC82EDD24DF
:10297000DA9430CED12CC12C2DCECF92DF92EF92B3
:10298000FF920F931F93CF93DF93CDB7DEB7AF972F
:102990000FB6F894DEBF0FBECDBF7C016A0104E123
:1029A00012E01A8309831C861B8688EE93E0A0E060
:1029B000B0E08D879E87AF87B88B88E391E09A87D8
:1029C0008987188F0F8B198E1A8E1B8E1C8E84E0B0
:1029D00089A31BA70AA71CA61DA61EA61FA6809139
:1029E000980690919906A0919A06B0919B068EA3A5
:1029F0009FA3A8A7B9A78B839C83AD83BE831886AA
:102A00001F82AE01465D5F4FCE0101960E945D12AE
:102A100081309105B1F4D701ED91FC910488F589DD
:102A2000E02D1DA30CA38CA59DA5AEA5BFA58EA3CF
:102A30009FA3A8A7B9A7A601BE016C5D7F4FC701E0
:102A40000995AF960FB6F894DEBF0FBECDBFDF91EC
:102A5000CF911F910F91FF90EF90DF90CF9008954D
:102A6000CF92DF92EF92FF920F931F93CF93DF935A
:102A7000CDB7DEB7AF970FB6F894DEBF0FBECDBFB0
:102A80008C016B017A0184E192E09A8389831B8235
:102A90001C821D821E821C861B8648EE53E060E06D
:102AA00070E04D875E876F87788B28E331E03A8747
:102AB0002987988F8F8B198E1A8E1B8E1C8E24E07F
:102AC00029A39BA78AA71CA61DA61EA61FA6D801E0
:102AD0001C968C91843060F40E94750B882321F041
:102AE000F80184850E94500B84E0D8011C968C93D9
:102AF0008091980690919906A0919A06B0919B06B4
:102B00008EA39FA3A8A7B9A78B839C83AD83BE8305
:102B100018861F82AE01465D5F4FB601CE01019659
:102B20000E945D120097C1F0D801ED91FC910684DE
:102B3000F785E02D84E192E09DA38CA38CA59DA553
:102B4000AEA5BFA58EA39FA3A8A7B9A7A701BE0145
:102B50006C5D7F4FC8010995AF960FB6F894DEBF44
:102B60000FBECDBFDF91CF911F910F91FF90EF90DE
:102B7000DF90CF900895CF93DF931F92CDB7DEB74C
:102B800041E050E0BE016F5F7F4FFC0184850E94F1
:102B9000E6101816190634F4898190E00F90DF9141
:102BA000CF9108958FEF9FEFF9CFFC01848584309A
:102BB00010F40C94E61090E080E008950F931F93BA
:102BC000CF93DF9300D0CDB7DEB7FC01248524304E
:102BD000E0F48C0180E591E00E944C0222E030E0BC
:102BE000AE014F5F5F4F60E170E0F80184850E94A5
:102BF000850C89819A819827892798270F900F90B3
:102C0000DF91CF911F910F91089590E080E0F6CF72
:102C1000EF92FF920F931F93CF93DF9300D000D0DA
:102C2000CDB7DEB78C017B01FB0184858430A8F031
:102C300084E192E0F80191838083128213821482EE
:102C40001582C8010F900F900F900F90DF91CF91D8
:102C50001F910F91FF90EF90089580E591E00E9401
:102C60004C0224E030E0AE014F5F5F4F6CE070E05B
:102C7000F70184850E94850CBE016F5F7F4FC801FC
:102C80000E94420ADECF0F931F93CF93DF9300D0B1
:102C9000CDB7DEB7FC0124852430E0F48C0180E55B
:102CA00091E00E944C0222E030E0AE014F5F5F4FA6
:102CB00064E070E0F80184850E94850C89819A8126
:102CC0009827892798270F900F90DF91CF911F9118
:102CD0000F91089590E080E0F6CF3F924F925F927F
:102CE0006F927F928F929F92AF92BF92CF92DF921C
:102CF000EF92FF920F931F93CF93DF93CDB7DEB781
:102D0000EA970FB6F894DEBF0FBECDBF7C012A0153
:102D10003B0169010E9493044B015C0187010D5B3B
:102D20001F4FC8010E94FF11181619069CF00E943F
:102D30009304681979098A099B094616570668069B
:102D4000790608F466C162E370E080E090E00E94DA
:102D50006104E7CF42E250E0BE016F5F7F4FC801E0
:102D60000E94B61189818230D1F0312C832DEA96F0
:102D70000FB6F894DEBF0FBECDBFDF91CF911F918C
:102D80000F91FF90EF90DF90CF90BF90AF909F900A
:102D90008F907F906F905F904F903F900895F801D3
:102DA000848995898334910501F76D817E818F81B6
:102DB00098850E94212E4B015C01F6018082918250
:102DC000A282B38246E050E0B701685F7F4FCE0138
:102DD0004D960E94532F892B41F6F70180819181F6
:102DE000A281B38188169906AA06BB0608F4BDCF56
:102DF00084819581A681B78188159905AA05BB05AF
:102E000008F4B3CF89899A89AB89BC89868797876B
:102E1000A08BB18B4EEC50E070E060E0C8010E94E6
:102E2000B611312CC701829698AB8FA7F701B696E1
:102E3000FAABE9AB08969CAB8BAB67019AE1C90E84
:102E4000D11CBD96FEABEDABC701429698AF8FABE0
:102E5000FD97FAAFE9AF4701FEE18F0E911CF80133
:102E6000818D928D181619060CF080CFC8010E9432
:102E7000D5118333910509F4B2C014F58130910561
:102E800009F464C044F4892B51F3C8010E94D511A0
:102E9000AC01552775C08330910509F462C00697CF
:102EA000A1F7C8010E94D511B82E44E050E0B4014A
:102EB000C8010E94B611EB2DE450FF0BAF0160C0BA
:102EC0008A33910509F45FC084F585339105B1F12A
:102ED000C697D9F6C8010E94D5115C01B601CE0192
:102EE00089960E94420A8BA59CA5ADA5BEA5892BFB
:102EF0008A2B8B2BB1F0EDA9FEA940805180628016
:102F00007380B601CE0183960E94420A8DA19EA1D4
:102F1000AFA1B8A5A501481659066A067B0609F0B7
:102F2000B8CF44E050E0B60118C08B33910509F4E6
:102F300040C08F3F910509F492CFA7CFC8010E94EE
:102F4000D511C8010E94D511382E89CFC8010E9421
:102F5000D51144E050E06FA978ADC8010E94B611C8
:102F60007ECFC8010E94D511B82E44E050E069AD73
:102F70007AADC8010E94B6118B2D8450990BAC011B
:102F800070E060E0EACFC8010E94D51144E050E053
:102F900069A97AA9C8010E94B611F70166A177A1B3
:102FA00080A591A50E94212E66A377A380A791A753
:102FB00056CFC8010E94D51144E050E06BA97CA90E
:102FC000C8010E94B611F70162A573A584A595A555
:102FD0000E94212E62A773A784A795A740CFC8019E
:102FE0000E94D51144E050E06FA578A9C8010E9465
:102FF000B611F70162A173A184A195A10E94212EAF
:1030000062A373A384A395A366A777A780AB91ABB4
:1030100026CF33243A94AACE7F928F929F92AF927A
:10302000BF92CF92DF92EF92FF920F931F93CF93B5
:10303000DF93CDB7DEB7A6970FB6F894DEBF0FBE0D
:10304000CDBF8C01762E942E852E20E2A22ECE01AD
:1030500001967C01DC01EA2D1D92EA95E9F76801F1
:10306000F3E4CF0ED11C84E192E09AA389A38FEF01
:103070008BA38CA38DA38EA343E450E0BE016F5DB0
:103080007F4FC6010E947708019609F4BFC081E016
:1030900089838A8386E0B82EBB821C82D80114966D
:1030A0006D917D918D919C9117970E94212E6D833A
:1030B0007E838F83988789869A8680E890E09C87B4
:1030C0008B874CE150E0B701C6010E94E10FFE0181
:1030D00037968AE1DF011D928A95E9F74801B8E049
:1030E0008B0E911CF401D70101900D92BA94E1F777
:1030F00040E150E0B701C6010E94E10FF7011192D3
:10310000AA94E9F796E0A92EB12C40E250E0B7016D
:10311000C6010E94E10FF1E0AF1AB108B1F783E6F2
:10312000898392E89A8393E59B838C8385E38D83DF
:1031300081E08E837F829DE3988797E099878A87D5
:1031400086E0F401DE011B9601900D928A95E1F76D
:103150008CE0898B8A8B69E172E0CE0143960E94F4
:103160008E2FD8011B966C91CE0149960E94540275
:10317000F8016485CE014B960E945402D8011D9639
:103180006C91CE014D960E9454024EE150E0B70181
:10319000C6010E94E10FB3E07B121EC082E3898367
:1031A00084E08A83F80196859B8397859C83908928
:1031B0009D8391899E8396E39F838887828D8987EB
:1031C000838D8A87848D8B87858D8C874CE050E03A
:1031D000B701C6010E94E10F87E3898386E08A83F5
:1031E00091E09B8393E09C838D838FE08E838AE3C1
:1031F0008F838BE388878FEF898749E050E0B701A1
:10320000C6010E94E10FC6010E94DC0BA6960FB614
:10321000F894DEBF0FBECDBFDF91CF911F910F910C
:10322000FF90EF90DF90CF90BF90AF909F908F90E6
:103230007F9008952F923F924F925F926F927F926C
:103240008F929F92AF92BF92CF92DF92EF92FF92B6
:103250000F931F93CF93DF9300D000D000D0CDB752
:10326000DEB78C010E943A262FEC37E040E050E0B8
:103270000E94D42CDC01CB010196A11DB11DF801E7
:1032800084839583A683B78380839183A283B3834A
:103290005801F3E4AF0EB11CC5010E94680B64E451
:1032A00070E0C5010E94D10E882309F445C10E9437
:1032B00093042B013C01480182E4880E911C48EEE6
:1032C000C42E43E0D42EE12CF12C52E0252E1E8298
:1032D0001D82D4018C918330B1F1811166C0F80157
:1032E00084819581A681B7810196A11DB11D84833A
:1032F0009583A683B7830E94930464197509860990
:103300009709A70196010E94B22CA90161E0C801AA
:103310000E940C1881E0D4018C938D819E810197CD
:10332000C1F20E9493046419750986099709D801AE
:10333000D6962D913D914D915C91D99726173707DF
:103340004807590720F6C5010E94680BF8018481DF
:103350009581A681B7810196A11DB11D84839583B6
:10336000A683B7830E949304F801FE96608371835D
:10337000828393838D819E8126960FB6F894DEBF5B
:103380000FBECDBFDF91CF911F910F91FF90EF90B6
:10339000DF90CF90BF90AF909F908F907F906F9075
:1033A0005F904F903F902F9008958430F1F4F80192
:1033B00084819581A681B7810196A11DB11D848369
:1033C0009583A683B7830E949304641975098609BF
:1033D0009709A70196010E94B22CA90163E0C801D8
:1033E0000E940C18D4012C9298CF813051F5F8012D
:1033F00042AD53AD64AD75AD9E012F5F3F4FC80127
:103400000E946D16382EF2E08F1390C089819A8148
:10341000AB81BC81F80184839583A683B7830E9426
:1034200093046419750986099709A70196010E94FA
:10343000B22CA90163E0C8010E940C18D4013C928F
:103440006CCF823009F069CFF80142AD53AD64AD65
:1034500075AD9E012F5F3F4FC8010E946D16382E3B
:10346000F5E08F135DC0E3E0D401EC93F80182A195
:1034700093A1A4A1B5A1892B8A2B8B2B41F484E8BD
:1034800093E0A0E0B0E082A393A3A4A3B5A3F801C6
:1034900086A197A1A0A5B1A5892B8A2B8B2B61F4BE
:1034A00082A193A1A4A1B5A1B695A795979587955B
:1034B00086A397A3A0A7B1A7F80182A593A5A4A569
:1034C000B5A5892B8A2B8B2BA9F482A193A1A4A14A
:1034D000B5A1AC01BD0123E0769567955795479559
:1034E0002A95D1F7841B950BA60BB70B82A793A740
:1034F000A4A7B5A7F80186A197A1A0A5B1A586A705
:1035000097A7A0ABB1AB82A593A5A4A5B5A582ABA7
:1035100093ABA4ABB5AB81E090E09E838D83FDCEF1
:1035200096E0891303C0D4011C92F7CEBFEF3B1283
:10353000F4CEF4011082F1CE1E821D821BCF0C94BA
:10354000CA2E1F920F920FB60F9211242F933F9302
:103550008F939F93AF93BF9380919A0390919B0316
:10356000A0919C03B0919D033091990323E0230F18
:103570002D3758F50196A11DB11D20939903809315
:103580009A0390939B03A0939C03B0939D03809117
:103590009E0390919F03A091A003B091A103019677
:1035A000A11DB11D80939E0390939F03A093A00340
:1035B000B093A103BF91AF919F918F913F912F91B4
:1035C0000F900FBE0F901F90189526E8230F0296BC
:1035D000A11DB11DD2CF1F920F920FB60F921124D1
:1035E0002F933F934F935F936F937F938F939F930B
:1035F000AF93BF93EF93FF938BED95E00E944A0644
:10360000FF91EF91BF91AF919F918F917F916F91BA
:103610005F914F913F912F910F900FBE0F901F9090
:1036200018951F920F920FB60F9211242F938F931C
:103630009F93EF93FF93E091EB05F091EC05808170
:10364000E091F105F091F20582FD1BC0908180911F
:10365000F4058F5F8F732091F505821741F0E0919B
:10366000F405F0E0E552FA4F958F8093F405FF9151
:10367000EF919F918F912F910F900FBE0F901F9000
:1036800018958081F4CFCF92DF92EF92FF92CF9383
:10369000DF93EBEDF5E01382128288EEC82E83E013
:1036A000D82EE12CF12CC482D582E682F78280EDFF
:1036B00091E09183808385EC90E09587848784EC0A
:1036C00090E09787868780EC90E0918B808B81ECEF
:1036D00090E0938B828B82EC90E0958B848B86ECD0
:1036E00090E0978B868B118E128E138E148EE8E7E6
:1036F000F6E084E192E09183808312821382148247
:103700001582EEE7F6E091838083128213821482A1
:103710001582E4E8F6E0918380831282138214829A
:103720001582EAE8F6E09183808312821382148284
:103730001582E0E9F6E0918380831282138214827D
:103740001582ECE9F6E09183808312821382148261
:103750001582E6E9F6E09183808312821382148257
:103760001582E2EAF6E0918380831282138214824A
:103770001582E8EAF6E09183808312821382148234
:103780001582E5EDF6E09183808312821382148224
:103790001582A2ECB6E082E015968C9315978BE02B
:1037A00016968C931697E2EAF3E0E4911796EC9361
:1037B0001797EEE8F3E0E4911896EC93189740E839
:1037C0005EE360E070E01D964D935D936D937C9396
:1037D0005097CDEBD6E088E0888387E0898384E644
:1037E00090E09C838B8360E088E00E94E60260E0CA
:1037F00089810E94E60260E088810E94B80260E050
:1038000089810E94B802EEEAF6E013821282C48235
:10381000D582E682F78282EE91E09183808384E014
:10382000848788EE93E096878587DF91CF91FF901C
:10383000EF90DF90CF900895CF93DF93CDB7DEB7B1
:10384000C654D1090FB6F894DEBF0FBECDBF789431
:1038500084B5826084BD84B5816084BD85B5826095
:1038600085BD85B5816085BD80916E008160809346
:103870006E001092810080918100826080938100AF
:1038800080918100816080938100809180008160BF
:10389000809380008091B10084608093B10080911A
:1038A000B00081608093B00080917A008460809342
:1038B0007A0080917A00826080937A0080917A0009
:1038C000816080937A0080917A00806880937A008A
:1038D0001092C100E091EB05F091EC0582E080834D
:1038E000E091E705F091E8051082E091E905F0919B
:1038F000EA058FEC80831092F305E091EF05F091DB
:10390000F00586E08083E091ED05F091EE05808181
:1039100080618083E091ED05F091EE058081886003
:103920008083E091ED05F091EE05808180688083D1
:10393000E091ED05F091EE0580818F7D808363E05D
:1039400072E08BED95E00E94C30980918A0381119A
:103950002AC0109272031092710388EE93E0A0E0E7
:10396000B0E08093730390937403A0937503B093B6
:10397000760388E391E09093700380936F0384E172
:1039800092E090937E0380937D0310927F031092C8
:103990008003109281031092820384E08093870356
:1039A00081E080938A038CE293E090939303809369
:1039B000920380912B038111ADC060E372E080E03F
:1039C00090E00E946104DFB6F89406E913E0BAEAD9
:1039D000EB2EB3E0FB2E80912903811125C0F80165
:1039E0008491F7019491E82FF0E0EE0FFF1FE65A63
:1039F000FC4FA591B4918C91982321F461E08AE069
:103A00000E94B80261E08AE00E94E6028CB5806103
:103A10008CBD8CB580648CBD61E08DE00E94E602B7
:103A200061E08BE00E94E602809129038F5F809322
:103A30002903DFBEF8010491E02FF0E0EE0FFF1F35
:103A4000EC59FC4F85919491909328038093270320
:103A5000F701E490E092260361E08AE00E94E6022A
:103A60000E94F30680E591E00E944C0284E380937B
:103A7000BE0380E80E94BF070E94200C882309F43F
:103A8000B0C288E00E94BF070E940D0C883009F088
:103A9000A8C280E10E94BF070E940D0C803109F08E
:103AA000A0C280E00E94BF070E940D0C182F811158
:103AB00098C241E050E0BE016F5F7F4F8FE190E020
:103AC0000E94980A8981833009F08BC280E4809338
:103AD0002A0342E06EE170E0812F0E941B0842E061
:103AE0006FE170E0812F0E941B081F5F143089F77F
:103AF00040E06EE170E0812F0E941B0840E06FE122
:103B000070E0812F0E941B081F5F183089F781E049
:103B100080932B0380E591E00E944C0246E050E048
:103B200060E071E089E090E00E940F0784E192E09C
:103B30009A8389831B821C821D821E82CE0103967A
:103B40000E946F088091920390919303DC019296FA
:103B50001D921D921D921C929597FC0116A217A210
:103B600010A611A69A961D921D921D921C929D97C9
:103B700040E65AEE60E070E046AB57AB60AF71AF25
:103B800040EA5FE060E070E0DA964D935D936D93FC
:103B90007C93DD973E9624E1DF011D922A95E9F79B
:103BA00026E0E0E0F1E0DC01189601900D922A9504
:103BB000E1F7FC01EE5BFF4F10820E941A19813081
:103BC000910509F07EC280E591E00E944C020091CF
:103BD000920310919303B801625F7F4FCE0101966B
:103BE0000E94420ACE0103960E946F08B8016A5EE5
:103BF0007F4FCE0101960E94420A44E050E0BE0190
:103C00006D5F7F4F81E090E00E940F07B8016E5E0C
:103C10007F4FCE0101960E94420A44E050E0BE016F
:103C20006D5F7F4F85E090E00E940F07B801625EF4
:103C30007F4FCE0101960E94420A8B819C81AD810B
:103C4000BE818093980690939906A0939A06B093AC
:103C50009B060E943C047F7380911E0190911F017E
:103C60006827792770931F0160931E0168EE73E047
:103C700080E090E00E94610461ED71E08BED95E0E1
:103C80000E94A80584E192E09A8389831B821C82AA
:103C90001D821E8280E591E00E944C0244E050E0CB
:103CA000BE016D5F7F4F8FE090E00E94980A6BED40
:103CB00075E0CE0101960E944E0A8BED95E00E94C0
:103CC000AD0968EC71E08BED95E00E94A80566E017
:103CD00071E08BED95E00E94520966EC71E08BED8E
:103CE00095E00E94A8052AE049EB5BE060E070E007
:103CF0008BED95E00E9461098BED95E00E94AD0986
:103D000069EA71E08BED95E00E94A80540911A01E7
:103D100050911B0160911C0170911D012AE08BEDF7
:103D200095E00E9461098BED95E00E94AD0961E08C
:103D300083E00E94E60261E089E00E94E60261E021
:103D400085E00E94E60261E086E00E94E6020E94B1
:103D5000ED088FE08093BF060E94D00862E080915A
:103D6000C7060E94E6020E949304605D77408109C5
:103D700091096093CB067093CC068093CD06909307
:103D8000CE0687E38093D4066CED75E080E090E08A
:103D90000E946104FE01F196F8AFEFAB9E012F5F28
:103DA0003F4F1901009192031091930301151105E2
:103DB00009F4D0C00E9493044B015C0178013EE3FA
:103DC000E30EF11CF70180819181A281B381A501ED
:103DD0009401281B390B4A0B5B0BCA01B901683EE1
:103DE00033E0730781059105A0F128EE33E040E050
:103DF00050E00E94B22C861A970AA80AB90AD70185
:103E00008D929D92AD92BC921397F80186A597A5CD
:103E1000A0A9B1A969017A01CC0CDD1CEE1CFF1C24
:103E20008C159D05AE05BF0508F04FC116A617A657
:103E300010AA11AAF80182A993A9A4A9B5A98C1561
:103E40009D05AE05BF0508F049C112AA13AA14AA20
:103E500015AAF80186A597A5A0A9B1A9892B8A2B37
:103E60008B2B09F044C1EE5BFF4F8081833009F05A
:103E70003EC184E08083C8010E941A190196D801CE
:103E8000D2964D915D916D917C91D597452B462BA6
:103E9000472BA1F4F801EE5BFF4F2081233011F096
:103EA00021110CC01082F8013E9684E1DF011D92C1
:103EB0008A95E9F7C8010E941A1903968230910584
:103EC00019F0049709F046C080E591E00E944C0289
:103ED0000091920310919303B801625F7F4FCE016E
:103EE00001960E94420ACE0103960E946F08B80113
:103EF0006A5E7F4FCE0101960E94420A44E050E084
:103F0000BE016D5F7F4F81E090E00E940F07B80116
:103F10006E5E7F4FCE0101960E94420A44E050E05F
:103F2000BE016D5F7F4F85E090E00E940F07B801F2
:103F3000625E7F4FCE0101960E94420A8B819C8176
:103F4000AD81BE818093980690939906A0939A06BE
:103F5000B0939B060E94930427966CAF7DAF8EAF03
:103F60009FAF27978091950390919603A091970317
:103F7000B09198030097A105B105C1F027964CAD0B
:103F80005DAD6EAD7FAD2797481B590B6A0B7B0B60
:103F900080911A0190911B01A0911C01B0911D010B
:103FA000481759076A077B0708F4F1C210E081E05F
:103FB000111101C080E00E949F04882359F0809174
:103FC000C8068B3038F08D3008F494C085518230AB
:103FD00008F4C3C0812C912C40ECA42E4FE7B42EE2
:103FE000A7C087E38093BE0380E80E94BF070E94BA
:103FF000200C882329F188E00E94BF070E940D0C45
:104000008830F1F480E10E94BF070E940D0C182F48
:104010008031B1F480E00E94BF070E940D0C811135
:104020000FC041E050E0BE016F5F7F4F89E390E039
:104030000E94980A8981843019F410932A0367CD6D
:1040400083E38093BE0380E80E94BF070E94200C98
:10405000882371F180E10E94BF070E940D0C80311E
:1040600039F582E10E94BF070E940D0C823101F5F3
:1040700080E00E94BF070E940D0C811119C084E0EE
:1040800080932A0315E51EAB41E050E0BE016A5C57
:104090007F4F8BE190E00E940F071DAB41E050E0A5
:1040A000BE016B5C7F4F8AE190E00E940F072FCD2D
:1040B0001092BE036CED71E08BED95E00E94C30998
:1040C000D5CD892B09F0D2CDF5CF821B930BA40B54
:1040D000B50B86A797A7A0ABB1ABACCE821B930B59
:1040E000A40BB50B82AB93ABA4ABB5ABB2CE90E057
:1040F00080E0C5CE6091C30670E090E080E00E9451
:10410000852B2DEC3CEC4CEC5DE30E94E42B6B0129
:104110007C016091C20670E090E080E00E94852BF7
:104120009B01AC01C701B6010E944D2D4B015C0102
:1041300080E00E949F04882309F487C08091C8060C
:104140008C3009F49FC0D8F48B3091F1412C512C64
:1041500020EC622E2FE7722E67C06091C20670912C
:10416000C30676276727762790E080E00E94832B9E
:104170002DEC3CEC4CEC5DE30E94E42BD7CF855159
:10418000823020F70091C406602F70E0762F6627FA
:1041900066277F778091C506682B90E080E00E94BB
:1041A000832B2DEC3CEC4CEC5DE30E94E42B86C0B1
:1041B0006091C40670E090E080E00E94832B6B0168
:1041C0007C010091C50607FF0AC0AC019B0160E0BD
:1041D00070E080E89FEB0E944C2D6B017C010F701A
:1041E000602F70E090E080E00E94852B2DEC3CEC8D
:1041F0004CEC5DE30E94E42BA70196010E944D2D3B
:104200002B013C01112381F026E636E646EE5FE302
:10421000C301B2010E94E42B20E030E040E052E410
:104220000E944D2D2B013C01A5019401C501B40153
:104230000E94F42D811109C0A3019201C301B201B2
:104240000E94F42D882309F47DC460EB74E080E0C3
:1042500090E00E9461041F5F133009F0A8CE68E46B
:1042600073E08BED95E00E94C30980919403811166
:104270002EC0412C512C80EC682E8FE7782E5301F4
:1042800042013BC00091C406602F70E090E080E0E6
:104290000E94832B6B017C016091C5066F7070E0FA
:1042A00090E080E00E94852B2DEC3CEC4CEC5DE333
:1042B0000E94E42BA70196010E944D2D2B013C0189
:1042C00007FFA0CF77FA709477F870949BCF809017
:1042D000160190901701A0901801B090190140901C
:1042E00012015090130160901401709015016AE260
:1042F00073E08BED95E00E94C3091AAA19AA80E722
:1043000091E09F938F9380E292E09F938F93B8AD5B
:10431000BF93EFA9EF9381E08F9380E48F938BE9B4
:1043200094E09F938F930E9419090FB6F894DEBF13
:104330000FBECDBF882309F416C149E951E0239689
:104340005FAF4EAF239785E991E021969FAF8EAF87
:104350002197ADE9B1E0BEAFADAF7D019AAF89AFB6
:104360006A0111E000E4D6018D916D010E948F0277
:10437000AC01E9ADFAAD8191FAAFE9AF811107C0A7
:1043800081E020E04130510539F080E005C081E056
:1043900020E041305105C9F3922FD7012C9111969D
:1043A0003C91B2E0EB0EF11C9F938F933F932F93C0
:1043B000E1E3F2E0FF93EF9343E352E05F934F9327
:1043C00088AD8F939FA99F931F930F93ABE9B4E0A0
:1043D000BF93AF930E9419090FB6F894DEBF0FBECA
:1043E000CDBF882309F4BFC03DE9C31631E0D30631
:1043F00009F0B9CF0AE611E09EE5C92E91E0D92E69
:10440000FF24F394D8018D918D018E3008F08E50E9
:104410008770806480937C0080917A0080648093B0
:104420007A0080917A0086FDFCCF8091780090918F
:104430007900F60120813181F2E0CF0ED11C9F93EB
:104440008F933F932F9321E332E03F932F9383E3A6
:1044500092E09F938F93B8ADBF93EFA9EF93FF9234
:10446000F0E4FF932BE934E03F932F930E94190966
:10447000E82E0FB6F894DEBF0FBECDBF882309F437
:1044800072C0A0E7B1E0A017B10709F0BBCFA5014A
:104490009401C501B4010E94F42D81112EC08E013A
:1044A0000F5F1F4F21E040E0C501B4010E94D025FD
:1044B000C801FC01019620812032D9F3FF93EF93CC
:1044C00081E392E09F938F938BE392E09F938F938E
:1044D000B8ADBF93EFA9EF9381E08F9380E48F9302
:1044E0008BE994E09F938F930E9419090FB6F8947B
:1044F000DEBF0FBECDBF8823B1F1A3019201C3017E
:10450000B2010E94F42D81114FC08E010F5F1F4F29
:1045100021E040E0C301B2010E94D025C801FC01A6
:10452000019620812032D9F3FF93EF9381E392E04B
:104530009F938F938DE492E09F938F9338AD3F9339
:104540004FA94F9381E08F9380E48F938BE994E0A0
:104550009F938F930E9419090FB6F894DEBF0FBE88
:10456000CDBF811121C065E173E08BED95E00E9424
:10457000C30927968CAD9DADAEADBFAD2797809397
:10458000950390939603A0939703B093980380E0CC
:1045900090E0892B09F406CC0E943606882309F4A2
:1045A00001CC0E940000FECB68E073E08BED95E04B
:1045B0000E94C3096BE974E08BED95E00E94B1099C
:1045C00049EB5BE066E071E08EEA96E00E94301510
:1045D000892B59F466EF72E08BED95E00E94C309D8
:1045E0000E94ED080E94D008C4CF0BE914E0F80146
:1045F00001900020E9F78F010C59144060EF72E040
:104600008EEA96E00E94A80565EA71E08EEA96E0DF
:104610000E94520966EE72E08EEA96E00E94C3099B
:104620006FED72E08EEA96E00E94A80566E071E008
:104630008EEA96E00E94B1096DEC72E08EEA96E097
:104640000E94C30965EB72E08EEA96E00E94C309FE
:1046500062EA72E08EEA96E00E94C30969E872E0BD
:104660008EEA96E00E94C30968E772E08EEA96E05F
:104670000E94A805A80170E060E02AE08EEA96E0BA
:104680000E9461098EEA96E00E94AD098EEA96E0EA
:104690000E94AD096BE974E08EEA96E00E9452092F
:1046A0006BE672E08BED95E00E94C3090E949304D3
:1046B0002B013C01D12CC12CF12C00E0912CB12C10
:1046C0001CAE1BAE1AAE19AEA12C0E949304641945
:1046D0007509860997096838734181059105E0F0ED
:1046E000E9ADFAADE154FC4F1082A1105FC065E561
:1046F00072E08BED95E00E94C3090E94ED080E94D4
:10470000D0088EEA96E00E94A30B33CF1F2DF02E27
:10471000092D902E0F2DF12E8EEA96E00E94DD10CD
:10472000892BE9F18EEA96E00E94BB15182FA110A3
:1047300025C0B11016C08D30A1F08A3009F416C220
:104740008BAD9CAD01968033910558F4EBADFCAD7B
:10475000E20DF31D1083F101E80FF91F10829CAFE9
:104760008BAF2DE09212D5CF0A3099F6F212D1CF4D
:10477000AA24A3941A3069F2A12CCBCF89AD9AADAB
:1047800001968C3D910510F6E9ADFAADE154FC4F70
:1047900010831F2DF02E092D9AAF89AFBACF8EEA64
:1047A00096E00E94810B811190CF9ACF8EEA96E01D
:1047B0000E94A30B67E472E08BED95E00E94C309B1
:1047C0006FEB73E08BED95E00E94B10930E9C31601
:1047D00031E0D3060CF457C06AE372E08BED95E04C
:1047E0000E94A8052AE0A6010D2C000C660B770B91
:1047F0008BED95E00E9461098BED95E00E94AD097B
:104800000E94ED08C60183599140029728F044EFB9
:10481000C41641E0D406A1F5C60164E670E00E942A
:104820000D2ECB01EAE0F0E0BF010E940D2EDC016D
:10483000A454BE4F4C91C601BF010E940D2E9C0195
:10484000CB01BF010E940D2EFC01E454FE4F90816C
:1048500024543E4FD9018C9129E729834A839B83B5
:104860008C83CE0101960E94960369E272E08BED83
:1048700095E00E94C3098BED95E00E94AD0979CEC9
:104880000E94D008F2CF82E692E00E94D5099B01F7
:10489000AC01DC01CB010197A109B10980319E4037
:1048A000A105B10560F4A8EEB3E00E94F32C60937B
:1048B0001A0170931B0180931C0190931D01ADADF3
:1048C000BEAD8D919D91BEAFADAF0E94D50997FD54
:1048D00019C081E0161617060CF080E02196EEADA7
:1048E000FFAD21979081992329F081E016161706D4
:1048F0000CF480E0682F2396AEADBFAD23978C916A
:104900000E94B8022396EEADFFAD23973196239611
:10491000FFAFEEAF239721962EAD3FAD21972F5FCE
:104920003F4F21963FAF2EAF21974DAD5EAD455A1B
:10493000514029F60FEB13E0D8018C91882309F43C
:104940004DC0F80181918B3309F44DC0803209F4D8
:104950004AC08D3009F447C097EF980F923008F4A1
:1049600042C08823D9F16DE370E0C8010E94832F13
:104970000097A1F19C01201B310BFC0131967F01B6
:104980002730310591F547E050E068E772E0C80153
:104990000E94952F892B49F56BE370E0C7010E94B7
:1049A000832F8C01892B31F4F70101900020E9F766
:1049B00031978F010E191F09C8010196499710F010
:1049C00007E110E0A801B701C1010E94602FF101C9
:1049D000E00FF11F10828981811112C00E94D0085E
:1049E00068E172E044CF8F01ACCF6BE370E0C701A8
:1049F0000E94832F009791F38C010F5F1F4F9CCF74
:104A000060E872E0C1010E94702F892B39F3D10157
:104A10000D900020E9F7CD01059782159305E1F48B
:104A2000F1019E012B5F3F4F819180538A30A0F4AA
:104A3000E217F307C9F7C1010E94AD27BC018AE064
:104A400077FD86EF77FF03C071956195710921E0CD
:104A500040E00E94C003C4CF1CAA1BAA1AAA19AA2C
:104A6000B8ADBF93EFA9EF93CE01C3969F938F93F9
:104A700085E892E09F938F933F922F920E94AD2FF3
:104A80000FB6F894DEBF0FBECDBF029729F42BA955
:104A90003CA928313105E8F0F1018191882309F41E
:104AA0009DCF80538A30C8F7C1010E94A9276B01AE
:104AB0007C0120E030E0A9010E94EF2D87FF1AC0A1
:104AC00020E030E040E05FE3C701B6010E944C2DDA
:104AD00019C089A99AA98C339105F0F644E6429F42
:104AE000B001439F700D1124680F791F21E040E44D
:104AF0008AE0AFCF20E030E040E05FE3C701B601DD
:104B00000E944D2D0E94B92D603137E27307B4F435
:104B100037EE93E069314CEF740754F0CB0177FF27
:104B200004C088279927861B970B382F77FF08C06A
:104B300086EF20E040E0632F792F8BCF3FE097E2B4
:104B40008AE0F7CF81E080939403809216019092DF
:104B50001701A0921801B0921901409212015092CF
:104B600013016092140170921501C7CB1AAA19AAF9
:104B700098AD9F93AFA9AF93EBE8F2E0FF93EF936B
:104B80003F922F920E94AD2F0F900F900F900F9099
:104B90000F900F90019711F4C9A8DAA8BE2CE1CDAF
:104BA000EF920F931F93CF93DF93E80134E047FD1B
:104BB00034E1042E000C550B57FF03C0519541956D
:104BC0005109E32E022F242FAE010E94DC27CE01D3
:104BD000DF91CF911F910F91EF9008958F929F9247
:104BE000AF92BF92CF92DF92EF92FF92CF93DF937B
:104BF000EC01688179818A819B816115710581054C
:104C0000910521F464E279ED8BE597E02DE133EF36
:104C100041E050E00E94D42C49015A019B01AC01B3
:104C2000A7EAB1E40E94F32C6B017C01ACEEB4EF77
:104C3000A50194010E94012DC60ED71EE81EF91E83
:104C4000F7FE06C081E0C81AD108E10880E8F80A3A
:104C5000C882D982EA82FB82C701B6019F77DF91C1
:104C6000CF91FF90EF90DF90CF90BF90AF909F904B
:104C70008F9008958F929F92AF92BF92CF92DF92C2
:104C8000EF92FF92609120017091210180912201A9
:104C900090912301611571058105910521F464E26C
:104CA00079ED8BE597E02DE133EF41E050E00E9494
:104CB000D42C49015A019B01AC01A7EAB1E40E943E
:104CC000F32C6B017C01ACEEB4EFA50194010E94C2
:104CD000012DC60ED71EE81EF91EF7FE06C081E0A4
:104CE000C81AD108E10880E8F80AC0922001D092E1
:104CF0002101E0922201F0922301C701B6019F77C2
:104D0000FF90EF90DF90CF90BF90AF909F908F90EB
:104D10000895609320017093210180932201909364
:104D200023010895B0E0A0E0E8E9F6E20C94072D35
:104D30005C016B017A016115710519F0FB0191832A
:104D40008083E114F10451F0C7010297839730F09A
:104D500040E030E020E090E072C05E01E501219685
:104D6000F5011081812F90E00E94CB27892BA9F7B4
:104D70001D3201F52196F501118101E0E114F104E4
:104D800009F4DAC0F0E1EF16F10409F082C0103343
:104D900059F488818F7D883509F076C01981229673
:104DA0000260F0E1EF2EF12C812C912CA12C88E0F7
:104DB000B82E8CC01B3221F4E5012296F501118139
:104DC00000E0DCCFEAE0EE16F10409F4BBC0F0E14C
:104DD000EF16F10409F06DC0E7CF78E0E72EF12C73
:104DE000812C912CA12C60E1B62E70C03FE9310FCF
:104DF0003A3128F439EA332E80C021E09AC0302FAE
:104E00003170C114D10431F0222309F12197F60148
:104E1000D183C08327FF21C060E070E080E090E88C
:104E2000311104C06FEF7FEF8FEF9FE722E230E098
:104E30003093DC062093DB06462F372F282F642F74
:104E4000732F822FCDB7DEB7E1E10C94232D01FF44
:104E500004C02297F601D183C083332341F090959B
:104E60008095709561957F4F8F4F9F4FE5CF97FF4E
:104E7000E3CF82E290E09093DC068093DB066FEF55
:104E80007FEF8FEF9FE7D8CF10E3E114F10409F42F
:104E9000A4CF28E0E216F10409F4A2CF0CF092CFDF
:104EA000812C912CA12CE0E4BE2E82E0E816F104C6
:104EB00069F060E070E080E090E897010F2C000C52
:104EC000440B550B0E94B22C49015A0120E060E0CE
:104ED00070E0CB0127010F2C000C66087708FE015B
:104EE00050ED352E310E39E0331540F43FEB310FE4
:104EF0003A3108F07BCF49EC342E310E3E141F04BA
:104F00000CF07DCF27FD15C086169706A806B906BA
:104F100078F0A30192010E94A22C630D711D811DE6
:104F2000911D61307105810520E8920708F465CF75
:104F30002FEF21961081D3CF103309F42ACF2AE026
:104F4000E22EF12C9CEC892E982CA82C9CE0B92EFA
:104F5000BDCF662777270C943B29FC01882799272A
:104F6000E89421912032E9F3293010F02E30C8F373
:104F70002B3241F02D3239F4689404C00E94D427BA
:104F8000820F911D219120532A30C0F31EF4909579
:104F900081959F4F089591110C94632B803219F0E5
:104FA00089508550C8F708957AE0979F902D879F84
:104FB000802D910D11240895A9E0B0E0E2EEF7E212
:104FC0000C940C2D6A01F22EB02E102FFBE3AF2EA5
:104FD000A01608F41BE31F5F012F27E0AE014F5F0F
:104FE0005F4F0E948B2ABC018981982F9970913064
:104FF00009F43FC09BE2E1FC04C09E2D9170E0FCEF
:105000003AC05E2D5071E82FE87083FF46C084E0FF
:10501000911101C083E0EF2DE81B8F1508F0E0E04F
:10502000D6018E2F20E2552351F1992329F0D60184
:105030009C93C60101966C0196012D5F3F4FE2FEE5
:1050400024C08EE4D6018C9391E411969C93119721
:1050500012968C93D9018E2F90E281111BC0E20F22
:10506000F32FF11D10828EEF9FEF2996ECE00C9448
:10507000282D9DE2C6CF90E2C4CF2D93815081119F
:10508000FCCFCE0ED11CE0E0D0CF8EE6D6018C93C3
:1050900091E6DBCF9D938150E0CF482F447082FF93
:1050A0003DC084E0911101C083E08F1510F4EF2D15
:1050B000E81BD6018E2F20E2552309F1992329F010
:1050C000D6019C93C60101966C0196012D5F3F4F5E
:1050D000E2FE1BC089E4D6018C938EE411968C937A
:1050E000119786E412968C93D9018E2F90E2882333
:1050F00009F4B5CF9D938150FACF2D938150811142
:10510000FCCFCE0ED11CE0E0D9CF89E6D6018C933E
:105110008EE611968C93119786E6E4CF9B0177FF7C
:1051200002C030E020E0A1E0B0E0911102C0B0E0A8
:10513000A0E0F9013196AE0FBF1F8B2C912CBB2044
:1051400009F461C05401EFEFAE1ABE0AAA0DBB1DEF
:10515000FA161B0619F014F04F2D4A1B511188C086
:10516000E3FC59C07601A42FB0E2A1114FC0C40ED8
:10517000D11C992309F45BC040E0D6011196F601D9
:1051800090836D01552309F448C0012F060F9A81C1
:10519000582F507184FF03C0913309F40150101649
:1051A0000CF047C0093008F008E0EEE2FE2E5B018B
:1051B000A01AB10885019194819491082F3F32077C
:1051C00029F4D601FC92F60131966F01621773073C
:1051D00094F1021713077CF5DB01A21BB30BAA2481
:1051E000A394B12CAC0EBD1EAA0DBB1D11968C91C3
:1051F00021503109D601119628153905F4F0F60130
:1052000080836D01DBCFB12CA12CA0CFF701B1932E
:105210007F01A150AACF9111B0CFD601942F50E3B6
:1052200002C05D9391509111FCCFC40ED11C40E09F
:10523000ACCF01E0BACF80E3DBCF6217730731F464
:10524000963388F4953311F4552369F0F601808381
:10525000FD01842F90E2811108C0A40FB11D1C92A2
:1052600090E080E002CF81E3F1CF91938150F3CFC2
:10527000911183CF8ACFB0E0A0E0E1E4F9E20C9491
:105280000C2D5C017B016115710519F0DB018D931B
:105290009C9385010F5F1F4FF501D0818D2F90E00A
:1052A0000E94CB276C01892BB9F5DD32B9F50F5F70
:1052B0001F4FD5011196DC91C1E05801F1E0AF1A02
:1052C000B10843E050E060E770E0C5010E94662B42
:1052D000892B69F5680182E0C80ED11C45E050E0D9
:1052E0006BE670E0C6010E94662B892B21F46801F1
:1052F00097E0C90ED11CE114F10419F0D701CD9249
:10530000DC9260E070E080E89FEFC111FFC060E0D8
:1053100070E080E89FE7FAC05801BBCFDB3229F488
:1053200085010E5F1F4FF501D181C0E0C6CF43E07C
:1053300050E068E670E0C5010E94662B892BE9F019
:10534000F80110E000E020E030E0A9015F01B0EDDD
:105350008B2E8D0E89E08815C8F19C2E689491F8EB
:105360008C2F8870C2FF16C0811102C00F5F1F4FC3
:105370003196D501DC91C92DE9CFE114F10429F072
:105380000E5F1F4FF7011183008360E070E080EC37
:105390009FE7BCC0882311F001501109A5E0B0E0DF
:1053A0000E94F32C9B01AC01220F331F441F551F99
:1053B000280D311D411D511D283999E9390749072B
:1053C00099E15907A8F2C6609C2ED2CFAEEF8A129F
:1053D00006C0C3FD3CC09C2E689493F8C9CFDF7D06
:1053E000D534A9F580818D3239F4C061DF01129680
:1053F000818162E070E006C0DF018B32C1F311965B
:1054000061E070E080535D01A61AB70A8A30F8F4B3
:10541000E0E8CE16ECE0DE065CF4B601660F771F1E
:10542000660F771FC60ED71ECC0CDD1CC80ED11C14
:105430005D01FFEFAF1ABF0A8C9180538A30A8F14B
:10544000C4FF03C0D194C194D1080C0D1D1DC1FF30
:1054500009C0E114F10431F081E0A81AB108D701C4
:10546000AD92BC92CA01B9010E94832BC370C330B4
:1054700009F490584B015C0120E030E0A9010E9442
:105480007E2B882309F440C0CFE9D0E017FF05C088
:10549000119501951109C7E8D0E06E01B8E1CB1A6A
:1054A000D10880E2E82EF12C0FC0D501B1CFFE016A
:1054B00025913591459154910E191F09C501B401EB
:1054C0000E94E42B4B015C01D501C4010E151F05A0
:1054D00074F72497F594E794CC16DD06A9F78A2F84
:1054E000880F8B2F881F8F3F49F020E030E0A90103
:1054F000C501B4010E947E2B811106C082E290E0BA
:105500009093DC068093DB06C501B401CDB7DEB70E
:10551000ECE00C94282D283008F027E03327DA013E
:10552000990F311D87FD916000966105710539F471
:1055300032602E5F3D9330E32A95E1F708959F3F57
:1055400030F080387105610509F03C5F3C5F3D93A8
:10555000913008F08068911DDF93CF931F930F93D4
:10556000FF92EF92192F987F9695E92F9695969531
:10557000E90FFF27E350FF4F99273327EE24FF243D
:10558000A701E70105900894079428F4360FE71E59
:10559000F81E491F511D660F771F881F991F06941B
:1055A000A1F70590079428F4E70EF81E491F561F2F
:1055B000C11D770F881F991F661F0694A1F70590DC
:1055C000079428F4F80E491F561FC71FD11D880FD6
:1055D000991F661F771F0694A1F70590079420F482
:1055E000490F561FC71FD81F990F661F771F881FA7
:1055F0000694A9F784911095177041F0D695C79538
:1056000057954795F794E7941A95C1F7E3EAF0E0C8
:1056100068941590159135916591959105907FE26B
:105620007395E118F10A430B560BC90BD009C0F76B
:10563000E10CF11E431F561FC91FD01D7EF47033AD
:1056400011F48A95E6CFE894015030F0080F0AF47F
:105650000027021708F4202F2395022F7A3328F011
:1056600079E37D932A95E9F710C07D932A9589F611
:10567000069497956795379517951794E118F10A51
:10568000430B560BC90BD00998F023957E91739567
:105690007A3308F070E37C932013B8F77E91706141
:1056A0007D9330F0839571E37D9370E32A95E1F764
:1056B0001124EF90FF900F911F91CF91DF919927C7
:1056C00087FD90950895992788270895FB01DC01AF
:1056D0004150504088F08D9181341CF08B350CF492
:1056E000805E659161341CF06B350CF4605E861B46
:1056F000611171F3990B0895881BFCCF0E94C02B98
:1057000008F481E00895E89409C097FB3EF4909571
:105710008095709561957F4F8F4F9F4F9923A9F08A
:10572000F92F96E9BB279395F69587957795679519
:10573000B795F111F8CFFAF4BB0F11F460FF1BC05D
:105740006F5F7F4F8F4F9F4F16C0882311F096E9F0
:1057500011C0772321F09EE8872F762F05C066239E
:1057600071F096E8862F70E060E02AF09A95660F57
:10577000771F881FDAF7880F9695879597F9089510
:10578000990F0008550FAA0BE0E8FEEF1616170652
:10579000E807F907C0F012161306E407F50798F0BA
:1057A000621B730B840B950B39F40A2661F0232BD3
:1057B000242B252B21F408950A2609F4A140A6954F
:1057C0008FEF811D811D08950E94F72B0C94682C8A
:1057D0000E945A2C38F00E94612C20F0952311F081
:1057E0000C94512C0C94572C11240C949C2C0E943A
:1057F000792C70F3959FC1F3950F50E0551F629F70
:10580000F001729FBB27F00DB11D639FAA27F00D19
:10581000B11DAA1F649F6627B00DA11D661F829F40
:105820002227B00DA11D621F739FB00DA11D621F25
:10583000839FA00D611D221F749F3327A00D611D42
:10584000231F849F600D211D822F762F6A2F112424
:105850009F5750409AF0F1F088234AF0EE0FFF1F57
:10586000BB1F661F771F881F91505040A9F79E3FAE
:10587000510580F00C94512C0C949C2C5F3FE4F368
:10588000983ED4F3869577956795B795F795E79504
:105890009F5FC1F7FE2B880F911D9695879597F90D
:1058A000089597F99F6780E870E060E008959FEFA2
:1058B00080EC089500240A941616170618060906A7
:1058C000089500240A941216130614060506089576
:1058D000092E0394000C11F4882352F0BB0F40F4FE
:1058E000BF2B11F460FF04C06F5F7F4F8F4F9F4F3E
:1058F000089557FD9058440F551F59F05F3F71F0C0
:105900004795880F97FB991F61F09F3F79F0879526
:105910000895121613061406551FF2CF4695F1DFAF
:1059200008C0161617061806991FF1CF869571053F
:10593000610508940895E894BB2766277727CB0173
:1059400097F90895DB018F939F930E94F32CBF91E9
:10595000AF91A29F800D911DA39F900DB29F900DBE
:1059600011240895A1E21A2EAA1BBB1BFD010DC034
:10597000AA1FBB1FEE1FFF1FA217B307E407F507FF
:1059800020F0A21BB30BE40BF50B661F771F881FDB
:10599000991F1A9469F760957095809590959B0171
:1059A000AC01BD01CF010895052E97FB1EF40094B4
:1059B0000E94EB2C57FD07D00E94B22C07FC03D0AD
:1059C0004EF40C94EB2C50954095309521953F4F1B
:1059D0004F4F5F4F089590958095709561957F4FDB
:1059E0008F4F9F4F08950E943D2DA59F900DB49F0E
:1059F000900DA49F800D911D11240895B7FF0C9464
:105A0000F32C0E94F32C821B930B08952F923F924C
:105A10004F925F926F927F928F929F92AF92BF92BE
:105A2000CF92DF92EF92FF920F931F93CF93DF936A
:105A3000CDB7DEB7CA1BDB0B0FB6F894DEBF0FBEC7
:105A4000CDBF09942A88398848885F846E847D8414
:105A50008C849B84AA84B984C884DF80EE80FD8016
:105A60000C811B81AA81B981CE0FD11D0FB6F8948C
:105A7000DEBF0FBECDBFED010895A29FB001B39F61
:105A8000C001A39F700D811D1124911DB29F700D47
:105A9000811D1124911D08955058BB27AA270E94EB
:105AA000642D0C94682C0E945A2C38F00E94612CB2
:105AB00020F039F49F3F19F426F40C94572C0EF47F
:105AC000E095E7FB0C94512CE92F0E94792C58F3B8
:105AD000BA17620773078407950720F079F4A6F5D3
